:100000000C949E010C9400000C9400000C940000D1
:100010000C9400000C9400000C9400000C94000060
:100020000C9400000C9400000C9400000C94000050
:100030000C9400000C9400000C9400000C94000040
:100040000C9400000C9400000C9400000C94000030
:100050000C9400000C9400000C9400000C94000020
:080060000C9400000C94000058
:10033C00BFEFBDBFB4E0BEBFCDB7DEB72797CDBF13
:10034C00DEBF21962F923F924F925F92B1E0B7B9E8
:10035C00B3E0B4B9B1E0B8B9B2E0B5B9B091B90095
:10036C00BE7FB093B900B091B900BD7FB093B90016
:10037C00B1E1B093B800D5DF1AE109EF0A95F1F7B6
:10038C001A95E1F769DFB6EA2B2E5BDFB1E32B2E72
:10039C0058DFBBE02B2E55DF74DF1AE109EF0A950D
:1003AC00F1F71A95E1F758DFB6EA2B2E4ADFBDE2DA
:1003BC002B2E47DFB8E02B2E44DF63DF1AE109EF69
:1003CC000A95F1F71A95E1F747DFB6EA2B2E39DFDC
:1003DC00BEE22B2E36DFB0E82B2E33DF52DF1AE1D4
:1003EC0009EF0A95F1F71A95E1F736DFB2ED2B2EEE
:1003FC0028DFB6E12B2E25DFBAE12B2E22DF41DFE1
:10040C001AE109EF0A95F1F71A95E1F725DFB2ED3C
:10041C002B2E17DFB5E12B2E14DF222412DF31DF58
:10042C001AE109EF0A95F1F71A95E1F7BAE0B093E2
:10043C00C400B0E0B093C5004DDF2BE016E20EE532
:10044C000A95F1F71A95E1F72A95D1F7000000000B
:10045C0012DF013009F088C080DE003409F084C05E
:10046C00FBDEB6EA2B2EEDDEB2E32B2EEADEF4DE5B
:10047C00B7EA2B2EE6DE40E050E003E010E0401738
:10048C00510714F5B1E02B2E57DE602F70E0B1E070
:10049C002B2E52DE202F30E0122F00279B01200F35
:1004AC00311F8E015F934F93280119016ADE4F9122
:1004BC005F91B0E22B2E54DE8E011801F4DE8A011E
:1004CC000F5F1F4FA801D9CFDCDE1AE109EF0A95A7
:1004DC00F1F71A95E1F7E1DE1AE109EF0A95F1F768
:1004EC001A95E1F7B9DEB2ED2B2EABDEBDE12B2E6A
:1004FC00A8DEB2DEB3ED2B2EA4DE40E050E003E02C
:10050C0010E04017510714F5B1E02B2E15DE202F0B
:10051C0030E0B1E02B2E10DE602F70E0122F0027A0
:10052C009B01200F311F8E015F934F9328011901FE
:10053C0028DE4F915F91B0E22B2E12DE8E01180156
:10054C00B2DE8A010F5F1F4FA801D9CF9ADE1AE1E4
:10055C0009EF0A95F1F71A95E1F79FDE1AE109EF19
:0C056C000A95F1F71A95E1F773CFFFCF65
:10026400B4EAB093BC00B091BC00B7FD01C0FBCFB1
:0E02740051DF0830B0E009F0B1E00B2F089523
:080118000091B900087F089571
:10024E002092BB00B4E8B093BC00B091BC00B7FDE7
:06025E0001C0FBCF089572
:08028E00B4E9B093BC0008952F
:0C0282000090C000002707FC03950895C1
:060166000091C60008959F
:10014400B4E8B093BC0020FAB091BC00B6F9B09307
:10015400BC00B091BC00B7FD01C0FBCF0091BB0057
:020164000895FC
:10018E00CF93DF93CDB7DEB72497CDBFDEBF2196D9
:10019E002F923F92B0E0B883B9832A823B8200E06F
:1001AE0010E02016310654F4B1E0B883B0E0B98304
:1001BE0000E010E0021913090A831B832A803B809A
:1001CE0060DF66E070E0AB0100E010E00417150799
:1001DE0090F49A01240D351D8A0101501040F8014A
:1001EE00E40DF51D0081F90100838A0101501040D4
:1001FE00B801AB01E9CFF201B0E2B08308811981F9
:10020E00B02FB12BA9F020E030E0F901E40DF51D7F
:10021E000081003229F489010F5F1F4F9801F5CF3D
:10022E00890101501040F801E40DF51DBDE2B083C7
:10023E003F902F902396CDBFDEBFDF91CF910895D3
:00024E00B0
:10009000CF93DF93CDB7DEB72297CDBFDEBF2196DA
:1000A00010E0153050F4E12FF0E0E40DF51DB0E262
:1000B000B083012F0F5F102FF4CFE12FF0E0E40D9C
:1000C000F51DB0E0B083012F0150302F032F10E059
:1000D000040D151D088319834AE050E08101C4DF37
:1000E0008D01202F205D08811981F80120834AE0CD
:1000F00050E08101B9DF8C011801103009F40030A3
:1001000009F404C0032F0150302FE0CF2196CDBF5A
:08011000DEBFDF91CF910895DD
:10006800C801BA01AA1BBB1B51E107C0AA1FBB1FCD
:10007800A617B70710F0A61BB70B881F991F5A952C
:08008800A9F7809590950895F9
:10016C00B091C000B5FD01C0FBCFB091C000B6FF8F
:10017C0005C0B091C000B064B093C0002092C6001E
:02018C000895D4
:1002B20010E0F1010081202F022F003079F03F92EF
:1002C2002F92202E52DF2F903F90012F0F5F102F81
:0E02D200E02FF0E0E20DF31D0081EFCF089564
:0C02A600B091BC00BB7FB093BC00089579
:0E032E00B0E3B093B900B4E0B093BC00089502
:1002E000B6EBB0930001B0E0B0930101B3EBB09373
:1002F0000201B0E0B0930301B1E4B0930601B1E0B4
:10030000B0930701BFEFB0930401BFEFB0930501B5
:10031000BAB1BE7FBAB9BAB1B260BAB90091C10080
:0E03200008610093C100B6E0B093C2000895DA
:0202A0000895BF
:0A02960005900D920197E1F708951D
:0202A4000895BB
:0202A2000895BD
:0201420008951E
:02012A00089536
:02012800089538
:02012E00089532
:02012C00089534
:0201220008953E
:02012000089540
:0201260008953A
:0201240008953C
:02013000089530
:02014000089520
:02013E00089522
:0201340008952C
:0201320008952E
:02013800089528
:0201360008952A
:02013A00089526
:02013C00089524
:00000001FF
